:03000000020B8B65
:0C0B8B00787FE4F6D8FD758121020BD2C2
:070AF50042007F0000C10276
:100A2B0090009BE4F0120CD9120FC01213DD1213BD
:100A3B00D4120CD91212FB7F01121297120F0090D5
:100A4B00001A12051B120C1790007FE0FEA3E0FFAB
:100A5B00C3EF940AEE9400500C90007FE475F00104
:100A6B001204DF807A90007FE4F0A3E4F020020709
:100A7B001212FBB202800512094AB20220081712A9
:100A8B00004B1205587D007F031212DB7F011213FE
:100A9B009812079D804990001A1205031205587D84
:100AAB00807F031212DB7F0112139830080A90002B
:100ABB0022E475F0011204DF300824900022E0FEDE
:100ACB00A3E0FFD3EF9407EE94004013900022E4D1
:100ADB00F0A3E4F0C20890001A120503120C7F7FFA
:090AEB000A7E0012102E020A50CE
:010AF40022DF
:100AFC0044003E000000004200460000C1004400DB
:050B0C004200000000A2
:08000300C292121222D29222D5
:1013860012117E209204D2038002C2031211F9A226
:011396000353
:011397002233
:10134C00C2921213FAD292121155A2929204121155
:03135C007EA2046A
:01135F00226B
:100E2100900075E4F09000737401F0900073E0FF9E
:100E3100EFD39408503112134CE433FF900074EF58
:100E4100F0900074E0FFEFC43333335480FF90001F
:100E510075E0FEEEC313FEEE4FFF900075EFF090CC
:0C0E61000073E004F080C4900075E0FF16
:010E6D002262
:050D8400900081EFF07A
:100D89009000827401F0900082E0FFEFD394085044
:100D990038900081E0FFEF139205900081E0FFEFAA
:100DA900C313FF900081EFF030050CC29212112C91
:100DB900D2921211D0800AC2921211A7D2921213A2
:090DC900FA900082E004F080BD04
:010DD20022FE
:1012FB0012000312138650147F017E00120FF77F2A
:0E130B00CC120D847F44120D84D32222C32203
:10094A001200031213864003020A297F017E001255
:10095A000FF77FCC120D847FBE120D84120E217EFA
:10096A0000900058EEF0A3EFF0120E217E009000E6
:10097A005AEEF0A3EFF0300102D32290005AE0FEC3
:10098A00A3E0FF7E00EF540FFFEF7F00FE900058B8
:10099A00E0FCA3E0FDEF2DFFEE3CFE90005CEEF0E4
:1009AA00A3EFF090005AE0FEA3E0FFEF30E750908B
:1009BA00005CE0FEA3E0FFEFF4FFEEF4FEEF24019B
:1009CA00FFEE3400FEEE540FFEEF2401FDEE34007C
:1009DA00FCE41202DA7B007A007980783D12015633
:1009EA0090004212051B9000421205037B007A0018
:1009FA00798078BF12015690004212051B801D9023
:100A0A00005CE0FCA3E0FDE41202DA7B007A0079E4
:100A1A0080783D12015690004212051BD32222C350
:010A2A0022A9
:07004B0090004212050322A0
:10000E00900046E0FEA3E0FFC3EF9450EE94005044
:10001E000C900046E475F0011204DF222290004697
:10002E00E4F0A3E4F02000061212FBB20022120943
:0D003E004A12004B90003E12051BC200222A
:0713E60090003E12050322F6
:03005600000000A7
:100B110052002C3F065B4F666D7D077F6F777C39F6
:050B21005E7971004047
:10136000000090009C7407F090009CE014FFF0EFE8
:0213700070F615
:011372002258
:050D3000900083EFF0CC
:100D3500C295121360900084E4F0900084E0FFEF08
:100D4500C394085039900084E0FF74017E00A80721
:100D5500088005C333CE33CED8F9FF900083E0FD7C
:100D65007C00EE5CFEEF5DFFEE4F24FF92930000EA
:0E0D7500D2950000C295900084E004F080BC8E
:010D8300224D
:1013340090009DEFF0C29490009DE0FF120D3012DA
:081344001360D2941213602221
:10124B00900085EFF0900086EDF0C294900085E061
:10125B00FF120D30121360900086E0FF120D30125A
:08126B001360D29412136022FB
:100FC0007F021213347F44121334C2067D107C005A
:100FD0007F00120DD3C2067D107C007F01120DD35D
:100FE000C2067D107C007F02120DD3C2067D107CEC
:070FF000007F03120DD32264
:1012DB00900087EFF0900088EDF0900087E0FFEF33
:1012EB0025E0FFEF24C0FF900088E0FD12124B2297
:1013980090009EEFF090009EE0FFEF2488FF12136C
:0213A8003422ED
:0613F4007F801213342279
:100DD300900076EFF0900077ECF0A3EDF030062171
:100DE300900076E0FF900077E0FCA3E0FD742C2DEB
:100DF300F58274003CF583E0FEEE4480FD1212DBC5
:100E030022900076E0FF900077E0FCA3E0FD742CD5
:0E0E13002DF58274003CF583E0FD1212DB2207
:0605580090005112051B8A
:10055E007BFF7A007956C003C002C0017B017A008E
:10056E007955A801AC02AD03D001D002D0037E00B4
:10057E007F031204647FBC7E747D137CBC9000519B
:10058E0012050F12025C400302066090003DE0FF70
:10059E00900055EFF09000511205031213C77B0027
:1005AE007A007920784112025C605C405A900051CA
:1005BE001205031213C71203137C007D0A12048A5C
:1005CE00742C2DF58274003CF583E0FFEF4480FF20
:1005DE00900056EFF07F007E007D207C4190005110
:1005EE0012050F1201561213C71203137C007D0A57
:1005FE0012048A742C2DF58274003CF583E0FF9072
:10060E000057EFF002077E9000511205031213C738
:10061E001203137C007D0A12048A742C2FF5827447
:10062E00003EF583E0FF900056EFF090005112056A
:10063E00031213C71203137C007D0A12048A742C52
:10064E002DF58274003CF583E0FF900057EFF00229
:10065E00077E9000511205031213C77B007A0079B2
:10066E0020784112025C6002500302070390005191
:10067E001205031213C71203137C007D0A12048A9B
:10068E00742C2DF58274003CF583E0FFEF4480FF5F
:10069E00900055EFF07F007E007D207C4190005150
:1006AE0012050F1201561213C71203137C007D0A96
:1006BE0012048A742C2DF58274003CF583E0FF90B1
:1006CE000056EFF07F007E007DC87C4290005112F4
:1006DE00050F1201561213C71203137C007D0A1266
:1006EE00048A742C2DF58274003CF583E0FF900093
:1006FE0057EFF0807B9000511205031213C71203BF
:10070E00137C007D0A12048A742C2FF58274003E2D
:10071E00F583E0FF900055EFF090005112050312A3
:10072E0013C71203137C007D0A12048A742C2DF554
:10073E008274003CF583E0FFEF4480FF900056EF9B
:10074E00F07F007E007D207C4190005112050F123B
:10075E0001561213C71203137C007D0A12048A7409
:10076E002C2DF58274003CF583E0FF900057EFF0DE
:10077E00900055E0FD7F001212DB900056E0FD7FE9
:0E078E00011212DB900057E0FD7F021212DB19
:01079C00223A
:1013AA0075C70075C50075C60075C38075C400226F
:080F8400900079EEF0A3EFF0FC
:100F8C0075C78175C501900079E0FEA3E0FF8FC4A1
:100F9C00900079E0FEA3E0FFEEFF7E008FC375C6E4
:100FAC005A75C6A50090007BE5C2F01213AA9000FA
:030FBC007BE0FFD8
:010FBF00220F
:100F470090007CEEF0A3EFF090007EEDF075C78186
:100F570075C50290007CE0FEA3E0FF8FC490007C83
:100F6700E0FEA3E0FFEEFF7E008FC390007EE0FF70
:0D0F77008FC275C65A75C6A5001213AA22B6
:1010D100900089EEF0A3EFF075C78175C50390000C
:1010E10089E0FEA3E0FF8FC4900089E0FEA3E0FF4A
:1010F100EEFF7E008FC375C65A75C6A5001213AAEE
:0111010022CB
:060C7F0090004812051B65
:100C850090004CE4F07F007E041210D190004812D1
:100C9500050390004D12051B90004CE4F090004CAC
:100CA500E0FFEFC39404502B90004CE0FF7E00EF73
:100CB5002400FFEE3404FE90004CE0FD744D2DF54C
:100CC50082E43400F583E0FD120F4790004CE00408
:030CD500F080CAE2
:010CD80022F9
:100F000090005EE4F090005EE4F090005EE0FFEFA1
:100F1000C39404502B90005EE0FF7E00EF2400FF9E
:100F2000EE3404FE120F8490005EE0FE745F2EF536
:100F300082E43400F583EFF090005EE004F080CAB4
:060F400090005F120503A2
:010F46002288
:0613FA00000000000022CB
:10112C0090008BE4F0A3E4F090008BE0FEA3E0FFD2
:10113C00C3EF9401EE9400500F1213FA90008BE45D
:08114C0075F0011204DF80E0E0
:011154002278
:1011550090008DE4F0A3E4F090008DE0FEA3E0FFA5
:10116500C3EF9404EE9400500F1213FA90008DE42F
:0811750075F0011204DF80E0B7
:01117D00224F
:10117E0090008FE4F0A3E4F090008FE0FEA3E0FF78
:10118E00C3EF9414EE9400500F1213FA90008FE4F4
:08119E0075F0011204DF80E08E
:0111A6002226
:1011A700900091E4F0A3E4F0900091E0FEA3E0FF4B
:1011B700C3EF9419EE9400500F1213FA900091E4C4
:0811C70075F0011204DF80E065
:0111CF0022FD
:1011D000900093E4F0A3E4F0900093E0FEA3E0FF1E
:1011E000C3EF941DEE9400500F1213FA900093E495
:0811F00075F0011204DF80E03C
:0111F80022D4
:1011F900900095E4F0A3E4F0900095E0FEA3E0FFF1
:10120900C3EF948DEE9400500F1213FA900095E4F9
:0812190075F0011204DF80E012
:0112210022AA
:10122200900097E4F0A3E4F0900097E0FEA3E0FFC3
:10123200C3EF942CEE9401500F1213FA900097E42E
:0812420075F0011204DF80E0E9
:01124A002281
:080FF700900063EEF0A3EFF09F
:100FFF00900065E4F0A3E4F0900063E0FEA3E0FF4F
:10100F00900065E0FCA3E0FDC3ED9FEC9E500F1236
:0E101F0013FA900065E475F0011204DF80DA28
:01102D0022A0
:1012BA009000997414F090009A7471F090009AE07A
:1012CA0014FFF0EF70F6900099E014FFF0EF70EC65
:0112DA0022F1
:08102E00900067EEF0A3EFF063
:10103600900069E4F0A3E4F0900067E0FEA3E0FF0F
:10104600900069E0FCA3E0FDC3ED9FEC9E500F12FB
:0E10560012BA900069E475F0011204DF80DA2E
:011064002269
:100CD900759400759300759200759100759600756D
:100CE900950075B20075B10075B40075B30075CA89
:100CF9000075C90075CC0075CB0075E20075E1007F
:100D0900E5A254CFF5A275D80075E90075F900750B
:100D1900D90275F20075EA2075FA2075DA42D2DE39
:070D29007592027591002292
:1011020090006B12051B90006B12050F7F007E0092
:101112007DC87C421200617B337A33792378401296
:0A11220001561203138FEA8FFA2220
:0713ED0075EAFF75FAFF220B
:0F0B260042006F00004100720041007100C107E2
:03140000A207221E
:0913D40043CA1043C900D2CD2226
:03140300C2CD2235
:03140600D2CD2222
:1012970090009FEFF0D20790009FE0FF7E02EF8E55
:1012A700F0A4FFAEF090006FEEF0A3EFF0900071A6
:0312B700E4F0223E
:101273009000A0EFF0D2079000A0E0FF7E02EF8E77
:10128300F0A4FFAEF090006FEEF0A3EFF0900071CA
:041293007401F022D0
:100C170090006FE0FEA3E0FFD3EF9400EE94004056
:100C270052900071E0FFEF7025900072E0FFEFC374
:100C370094015007900072E004F022B2CD90007248
:100C4700E4F090006F74FF75F0FF1204DF2290004C
:100C570072E0FFEFC394145007900072E004F02293
:100C6700B2CD900072E4F090006F74FF75F0FF1240
:080C770004DF22D2CDC20722E6
:0913DD00438F20438F10D2AF2290
:03005300020E6E2C
:100E6E00C0E0C0F0C083C082C0D075D000C000C04A
:100E7E0001C002C003C004C005C006C007C2AF1245
:100E8E00140040057F0112129712109CD2AFD007AA
:100E9E00D006D005D004D003D002D001D000D0D0DF
:090EAE00D082D083D0F0D0E032F4
:03005B00020EB7DB
:100EB700C0E0C0F0C083C082C0D075D000C000C001
:100EC70001C002C003C004C005C006C007C2AF12FC
:100ED700140040057F01121297121065D2AFD00798
:100EE700D006D005D004D003D002D001D000D0D096
:090EF700D082D083D0F0D0E032AB
:100B350044001A00000000C10842002200004400E1
:100B4500280000000042001400004200240000427A
:100B5500002600004400164220000044001042A078
:100B6500000044000C42480000440008000000005A
:100B750044000400000000440000000000004400A0
:050B85001E000000004D
:0D13BA00121373120F0090001A12051B226F
:01005200228B
:10109C00D208900022E4F0A3E4F07F007E007D5C97
:1010AC007C4290001A12050F12025C501790001A25
:1010BC001205037B007A007980783F12006590005E
:0510CC001A12051B22B1
:10106500D208900022E4F0A3E4F07F007E007D200A
:101075007C4190001A12050F12025C60194017900E
:10108500001A1205037B007A00798078BF1200658B
:0710950090001A12051B2256
:10079D00300803020949900024E0FEA3E0FF900019
:1007AD0026EEF0A3EFF0900014E0FEA3E0FF900022
:1007BD0024EEF0A3EFF012004B1213C7C004C005D6
:1007CD00C006C00790001A1205031213C7D003D03C
:1007DD0002D001D000120061120313900014EEF04C
:1007ED00A3EFF0900024E0FEA3E0FF900014E0FCE6
:1007FD00A3E0FDC3ED9FFDEC9EFCEC1202DA900030
:10080D001612050F12015690000812051B900014C8
:10081D00E0FCA3E0FDEC1202DA90001012050F12BD
:10082D00015690000412051B7F007E007DA07C42C6
:10083D0090000412050F12025C600C400A90000437
:10084D0012052742A000007F007E007D487CC290EB
:10085D00000412050F12025C500A900004120527C5
:10086D00C2480000900024E0FEA3E0FFEF25E0FF6A
:10087D00EE33FE900014E0FCA3E0FDC3ED9FFFEC12
:10088D009EFE900026E0FCA3E0FDEF2DFDEE3CFC6E
:10089D00EC1202DA90000C12050F120156900000B6
:1008AD0012051B90000412050390000812050F128B
:1008BD00006590000012050F12006590001E1205D4
:1008CD001B7F007E007D007C0090001E12050F1224
:1008DD00025C4010900014E0FEA3E0FFC3EE6480C4
:1008ED009480501390001E1205031213C790001E22
:1008FD0012051B1213ED227F007E007DC47C4290F9
:10090D00001E12050F12025C600C400A90001E12B0
:10091D00052742C400007F007E007D007C00900012
:10092D001E12050F12025C500A90001E12052700C0
:0D093D0000000090001E120503121102229E
:10137300538E7F758900758AE6758CBED28CD2A98F
:03138300D2AF22C4
:03000B00021319C4
:10131900C0E0C0F0C083C082C0D075D008120052AE
:0B132900D0D0D082D083D0F0D0E032D2
:10005E0002037FE86480F8E933E83360110460F04E
:10006E00ED33EC337009E8FCE9FDEAFEEBFF220408
:10007E0060DED3EB9FEA9EE99DE8C2E78CF0C2F703
:10008E0095F0400CE8CCF8E9CDF9EACEFAEBCFFBCF
:10009E0012034A85D0F05804700320D5B3E80470DB
:1000AE00075002B2D502038992D5EC0460F7E4CC76
:1000BE00C0E0C398F8603B94186008400DD0E0FB98
:1000CE00020361E4FBFAC9FC8028E830E406E4C9C7
:1000DE00FBE4CAFCE830E305E4C9CACBFCE85407EC
:1000EE006010F8C3E913F9EA13FAEB13FBEC13FCF7
:1000FE00D8F130F52FC3E49CFCEF9BFFEE9AFEED9A
:10010E0099FDD0E0FBEF4E4D4C701222DB03020343
:10011E0086EC2CFCEF33FFEE33FEED33FDED30E7D6
:10012E00EB020361EF2BFFEE3AFEED39FDD0E0FB63
:10013E0050130BBB0003020389ED13FDEE13FEEF0C
:08014E0013FFEC13FC02036136
:10015600EC4D6011E8497017ED33EC3304600DE4A3
:10016600FCFFFEFD22E933E8330470F802037F1238
:10017600034A58046009E4CC248150062850090239
:100186000389284003020386C0E0EB4A7044B98025
:1001960006D0E0FB020375EF4E701CBD8008EBFF36
:1001A600EAFEE9FD80EBE98DF0A4FEE5F002023FF0
:1001B600E9CDF9EAFEEBFFEF89F0A4FCE5F0CE8984
:1001C600F0A42EFFE435F0CD89F0A42DFEE435F041
:1001D6008067EF4E7005BD80D780C3EF8BF0A4AC6F
:1001E600F0EE8BF0A42CFCE435F0F8EF8AF0A42CAA
:1001F600E5F038FCE433CB8DF0A42CFCE5F03BF8BD
:10020600EE8AF0A42CFCE5F038F8E433CF89F0A4AC
:100216002CFCE5F038CF3400CE89F0A42FFFE5F0B2
:100226003EFEE433C98DF0A42EFEE5F039CD8AF00A
:10023600A42FFFE5F03EFEE43DFD33D0E0FB500782
:100246000BBB000F020389EC2CFCEF33FFEE33FEF1
:06025600ED33FD0203611F
:10025C0074F8CC6480CCC86480C8F58204604FC349
:10026C00EB9FF5F0EA9E42F0E99D42F0E89C45F0E8
:10027C00603C501DE5825FFFE582D313CB5BCBF472
:10028C002B5582FB50280ABA002409B9002008809B
:10029C001DE5825BFBE582D313CF5FCFF4C3132F35
:1002AC005582FF50090EBE00050DBD00010CC3EBBD
:1002BC009FF5F0EA9E42F0E99D42F0E89C45F06023
:0902CC0007CC4820E701B3EC2245
:1002D50075F020800E75F010800575F0087D007EA4
:1002E500007F003392D530D5031204F5EC3340106E
:1002F500EF33FFEE33FEED33FDEC33FCD5F0ED22AD
:0E030500E5F0247EA2D513CC92E7CDCEFF22E8
:10031300EDD2E7CD33EC3392D524814006E4FFFEE2
:10032300FDFC22FCE4CFCECDCC24E0501174FF8041
:10033300EDC3CC13CCCD13CDCE13CECF13CF0470DE
:07034300F030D5DE0204F5E5
:0D13C700ED33EC3360065004EC6480FC2232
:10034A00E9D2E7C933E833F892D5EDD2E7CD33ECF9
:07035A0033FC5002B2D52272
:10036100EC30E7100FBF000C0EBE00080DBD0004FD
:100371000BEB6014A2D5EB13FCED92E7FD2274FFA9
:10038100FCFDFEFF22E480F8A2D574FF13FC7D8002
:03039100E480EF16
:100B9700020A2BE493A3F8E493A34003F68001F23F
:100BA70008DFF48029E493A3F85407240CC8C3335F
:100BB700C4540F4420C8834004F456800146F6DF2E
:100BC700E4800B0102040810204080900AF5E47EBF
:100BD700019360BCA3FF543F30E509541FFEE49323
:100BE700A360010ECF54C025E060A840B8E493A3EA
:100BF700FAE493A3F8E493A3C8C582C8CAC583CA15
:100C0700F0A3C8C582C8CAC583CADFE9DEE780BECC
:010B8A00006A
:10039400E709F608DFFA8046E709F208DFFA803E4B
:1003A40088828C83E709F0A3DFFA8032E309F60838
:1003B400DFFA8078E309F208DFFA807088828C83A0
:1003C400E309F0A3DFFA806489828A83E0A3F60854
:1003D400DFFA805889828A83E0A3F208DFFA804C2E
:1003E40080D280FA80C680D4806980F28033801005
:1003F40080A680EA809A80A880DA80E280CA80336E
:1004040089828A83ECFAE493A3C8C582C8CCC583E5
:10041400CCF0A3C8C582C8CCC583CCDFE9DEE780B5
:100424000D89828A83E493A3F608DFF9ECFAA9F034
:10043400EDFB2289828A83ECFAE0A3C8C582C8CC8A
:10044400C583CCF0A3C8C582C8CCC583CCDFEADEA3
:10045400E880DB89828A83E493A3F208DFF980CC05
:1004640088F0EF60010E4E60C388F0ED2402B404FE
:100474000050B9F582EB2402B4040050AF232345A5
:0604840082239003E473E3
:10048A00BC000BBE0029EF8DF084FFADF022E4CC56
:10049A00F875F008EF2FFFEE33FEEC33FCEE9DEC1F
:1004AA00984005FCEE9DFE0FD5F0E9E4CEFD22ED65
:1004BA00F8F5F0EE8420D21CFEADF075F008EF2FAF
:1004CA00FFED33FD4007985006D5F0F222C398FDA0
:0504DA000FD5F0EA223D
:1004DF00C5F0F8A3E028F0C5F0F8E58215827002A8
:0604EF001583E038F02245
:0E04F500C3E49FFFE49EFEE49DFDE49CFC2218
:0C050300E0FCA3E0FDA3E0FEA3E0FF226B
:0C050F00E0F8A3E0F9A3E0FAA3E0FB226F
:0C051B00ECF0A3EDF0A3EEF0A3EFF02253
:10052700A8828583F0D083D08212053E12053E1241
:10053700053E12053EE473E493A3C583C5F0C58366
:10054700C8C582C8F0A3C583C5F0C583C8C582C81E
:010557002281
:00000001FF
