:030000000208EC07
:0C08EC00787FE4F6D8FD75812002093306
:10109600900000E4F0120E281211A312119A1210F9
:0E10A600551210B57F0112103212118080FE1B
:0110B4002219
:100CA3004400430000000042004B0000C100440028
:050CB3004700000000F5
:08000300C292120FBDD292223D
:10113F00120F19209204D2038002C203120F94A23D
:01114F00039C
:01115000227C
:10110500C2921211C0D292120EF0A2929203120F45
:0311150019A20319
:0111180022B4
:100B7B0090002BE4F09000297401F0900029E0FF25
:100B8B00EFD394085031121105E433FF90002AEF94
:100B9B00F090002AE0FFEFC43333335480FF900012
:100BAB002BE0FEEEC313FEEE4FFF90002BEFF09009
:0C0BBB000029E004F080C490002BE0FF53
:010BC700220B
:050ADE00900029EFF07B
:100AE30090002A7401F090002AE0FFEFD39408509D
:100AF30038900029E0FFEF139203900029E0FFEF05
:100B0300C313FF900029EFF030030CC292120EC7FB
:100B1300D292120F6B800AC292120F42D29212111A
:090B2300C090002AE004F080BD3E
:010B2C0022A6
:1010B50012000312113F50137F017E00120E5F7F55
:0D10C500CC120ADE7F44120ADED322C322C1
:10080C0012000312113F40030208EA7F017E00121E
:10081C000E5F7FCC120ADE7FBE120ADE120B7B7ECD
:10082C0000900023EEF0A3EFF0120B7B7E00900003
:10083C0025EEF0A3EFF0300102D322900025E0FE6C
:10084C00A3E0FF7E00EF540FFFEF7F00FE9000232C
:10085C00E0FCA3E0FDEF2DFFEE3CFE900027EEF058
:10086C00A3EFF0900025E0FEA3E0FFEF30E75090FF
:10087C000027E0FEA3E0FFEFF4FFEEF4FEEF24010F
:10088C00FFEE3400FEEE540FFEEF2401FDEE3400BB
:10089C00FCE412037A7B007A007980783D120156D1
:1008AC009000471205BB9000471205A37B007A000D
:1008BC00798078BF1201569000471205BB801D90BD
:1008CC000027E0FCA3E0FDE412037A7B007A0079B8
:0F08DC0080783D1201569000471205BBD322C30E
:0108EB0022EA
:0711AC009000471205A32289
:100D3200C2AF90004BE0FEA3E0FFC3EF9450EE94ED
:100D420000500B90004BE475F00112057F229000D9
:100D52004BE4F0A3E4F02000051210B5800E120857
:0F0D62000C1211AC9000431205BBC200D2AF229D
:0711B3009000431205A32286
:03004E00000000AF
:100CB8005200313F065B4F666D7D077F6F777C3949
:050CC8005E797100409F
:1011190000009000307407F0900030E014FFF0EF09
:0211290070F65E
:01112B0022A1
:050A3A0090002EEFF01A
:100A3F00C29512111990002FE4F090002FE0FFEFF4
:100A4F00C39408503990002FE0FF74017E00A8076F
:100A5F00088005C333CE33CED8F9FF90002EE0FDCA
:100A6F007C00EE5CFEEF5DFFEE4F24FF92930000E3
:0E0A7F00D2950000C29590002FE004F080BCDC
:010A8D002246
:1010ED00900024EFF0C294900024E0FF120A3A120F
:0810FD001119D29412111922FD
:100FE60090002CEFF090002DEDF0C29490002CE0D4
:100FF600FF120A3A12111990002DE0FF120A3A1256
:081006001119D29412111922F4
:100E28007F021210ED7F441210EDC2027D107C008B
:100E38007F00120B2DC2027D107C007F01120B2D4A
:100E4800C2027D107C007F02120B2DC2027D107C35
:070E5800007F03120B2D22A5
:1010760090002AEFF090002BEDF090002AE0FFEFB1
:1010860025E0FFEF24C0FF90002BE0FD120FE622C3
:10115100900023EFF0900023E0FFEF2488FF1210AE
:02116100ED227D
:0611BA007F801210ED22FF
:100B2D00900001EFF0900002ECF0A3EDF030022107
:100B3D00900001E0FF900002E0FCA3E0FD74312D78
:100B4D00F58274003CF583E0FEEE4480FD121076D4
:100B5D0022900001E0FF900002E0FCA3E0FD743163
:0E0B6D002DF58274003CF583E0FD1210762217
:0605C7009000231205BBA9
:1005CD007BFF7A00794EC003C002C0017B017A0027
:1005DD007927A801AC02AD03D001D002D0037E0073
:1005ED007F031205047FBC7E747D137CBC900023B9
:1005FD001205AF1202FC40030206CF900042E0FF4D
:10060D00900027EFF09000231205A312118D7B00AF
:10061D007A00792078411202FC605C405A900023E8
:10062D001205A312118D1203B37C007D0A12052A47
:10063D0074312DF58274003CF583E0FFEF4480FFAB
:10064D00900028EFF07F007E007D207C41900023FC
:10065D001205AF12015612118D1203B37C007D0AE3
:10066D0012052A74312DF58274003CF583E0FF905C
:10067D000029EFF00207ED9000231205A312118D52
:10068D001203B37C007D0A12052A74312FF5827492
:10069D00003EF583E0FF900028EFF0900023120557
:1006AD00A312118D1203B37C007D0A12052A743139
:1006BD002DF58274003CF583E0FF900029EFF002E8
:1006CD0007ED9000231205A312118D7B007A00799E
:1006DD002078411202FC6002500302077290002341
:1006ED001205A312118D1203B37C007D0A12052A87
:1006FD0074312DF58274003CF583E0FFEF4480FFEB
:10070D00900027EFF07F007E007D207C419000233C
:10071D001205AF12015612118D1203B37C007D0A22
:10072D0012052A74312DF58274003CF583E0FF909B
:10073D000028EFF07F007E007DC87C4290002312E0
:10074D0005AF12015612118D1203B37C007D0A12F2
:10075D00052A74312DF58274003CF583E0FF90007D
:10076D0029EFF0807B9000231205A312118D120347
:10077D00B37C007D0A12052A74312FF58274003E78
:10078D00F583E0FF900027EFF09000231205A312F0
:10079D00118D1203B37C007D0A12052A74312DF5DB
:1007AD008274003CF583E0FFEF4480FF900028EF5A
:1007BD00F07F007E007D207C419000231205AF125A
:1007CD00015612118D1203B37C007D0A12052A7495
:1007DD00312DF58274003CF583E0FF900029EFF098
:1007ED00900027E0FD7F00121076900028E0FD7F3D
:0E07FD0001121076900029E0FD7F02121076A6
:01080B0022CA
:1011630075C70075C50075C60075C38075C40022B8
:080DEC00900006EEF0A3EFF009
:100DF40075C78175C501900006E0FEA3E0FF8FC4AE
:100E0400900006E0FEA3E0FFEEFF7E008FC375C6F0
:100E14005A75C6A500900008E5C2F012116390004F
:030E240008E0FFE4
:010E270022A8
:100DAF00900020EEF0A3EFF0900022EDF075C781D8
:100DBF0075C502900020E0FEA3E0FF8FC4900020D5
:100DCF00E0FEA3E0FFEEFF7E008FC3900022E0FF66
:0D0DDF008FC275C65A75C6A5001211632299
:100E9600900020EEF0A3EFF075C78175C5039000B2
:100EA60020E0FEA3E0FF8FC4900020E0FEA3E0FF59
:100EB600EEFF7E008FC375C65A75C6A50012116374
:010EC6002209
:0609E0009000171205BB98
:1009E60090001BE4F07F007E04120E969000171212
:1009F60005A390001C1205BB90001BE4F090001BA1
:100A0600E0FFEFC39404502B90001BE0FF7E00EF45
:100A16002400FFEE3404FE90001BE0FD741C2DF54F
:100A260082E43400F583E0FD120DAF90001BE00474
:030A3600F080CA83
:010A3900229A
:100CEB00900001E4F0900001E4F0900001E0FFEFD0
:100CFB00C39404502B900001E0FF7E00EF2400FF13
:100D0B00EE3404FE120DEC900001E0FE74022EF5A1
:100D1B0082E43400F583EFF0900001E004F080CA28
:060D2B009000021205A376
:010D3100229F
:0611C00000000000002207
:100EC70090002BE4F0A3E4F090002BE0FEA3E0FFFA
:100ED700C3EF9401EE9400500F1211C090002BE461
:080EE70075F00112057F80E0A7
:010EEF0022E0
:100EF00090002CE4F0A3E4F090002CE0FEA3E0FFCF
:100F0000C3EF9404EE9400500F1211C090002CE433
:080F100075F00112057F80E07D
:010F180022B6
:100F190090002CE4F0A3E4F090002CE0FEA3E0FFA5
:100F2900C3EF9414EE9400500F1211C090002CE4FA
:080F390075F00112057F80E054
:010F4100228D
:100F420090002BE4F0A3E4F090002BE0FEA3E0FF7E
:100F5200C3EF9419EE9400500F1211C090002BE4CD
:080F620075F00112057F80E02B
:010F6A002264
:100F6B0090002BE4F0A3E4F090002BE0FEA3E0FF55
:100F7B00C3EF941DEE9400500F1211C090002BE4A0
:080F8B0075F00112057F80E002
:010F9300223B
:100F9400900029E4F0A3E4F0900029E0FEA3E0FF30
:100FA400C3EF948DEE9400500F1211C0900029E409
:080FB40075F00112057F80E0D9
:010FBC002212
:100FBD00900029E4F0A3E4F0900029E0FEA3E0FF07
:100FCD00C3EF942CEE9401500F1211C0900029E440
:080FDD0075F00112057F80E0B0
:010FE50022E9
:080E5F00900029EEF0A3EFF072
:100E670090002BE4F0A3E4F0900029E0FEA3E0FF5C
:100E770090002BE0FCA3E0FDC3ED9FEC9E500F120A
:0E0E870011C090002BE475F00112057F80DA97
:010E9500223A
:10105500E5A254CFF5A275D80075E90075F90075BC
:10106500D90275F30075EA2075FB2075DB42D2DEE7
:011075002258
:100BC8009000531205BB43920243910075F3007BDA
:100BD800007A0079C878429000531205A312025F88
:100BE8007B007A0079807843120156A804A905AAE7
:100BF80006AB077F007E007D807C431200611203F4
:090C0800B38FEA8FFB75DB422279
:0D11730075F30075EA0075FB0075DB422284
:0F0CCD00420057000041005A0041005900C10485
:03005600A20422DF
:09119A0043CA1043C900D2CD2262
:0311C600C2CD2275
:0311C900D2CD2262
:10103200900017EFF0D204900017E0FF7E02EF8ECF
:10104200F0A4FFAEF0900057EEF0A3EFF09000593D
:03105200E4F022A5
:10100E0090005BEFF0D20490005BE0FF7E02EF8E6B
:10101E00F0A4FFAEF0900057EEF0A3EFF090005961
:04102E007401F02237
:10097800900057E0FEA3E0FFD3EF9400EE94004010
:1009880052900059E0FFEF702590005AE0FFEFC346
:100998009401500790005AE004F022B2CD90005A1A
:1009A800E4F090005774FF75F0FF12057F22900065
:1009B8005AE0FFEFC39414500790005AE004F02265
:1009C800B2CD90005AE4F090005774FF75F0FF1212
:0809D800057F22D2CDC20422EA
:0911A300438F20438F10D2AF22CC
:03005300020C118B
:100C1100C0E0C0F0C083C082C0D075D000C000C0A9
:100C210001C002C003C004C005C006C007C2AF12A4
:100C3100005640057F01121032120D71D2AFD0075C
:100C4100D006D005D004D003D002D001D000D0D03E
:090C5100D082D083D0F0D0E03253
:03005B00020C5A3A
:100C5A00C0E0C0F0C083C082C0D075D000C000C060
:100C6A0001C002C003C004C005C006C007C2AF125B
:100C7A00005640057F0112103212000ED2AFD00783
:100C8A00D006D005D004D003D002D001D000D0D0F5
:090C9A00D082D083D0F0D0E0320A
:0E0CDC0044004D00000000C105420051000020
:0D11800012112C120CEB90004D1205BB2239
:100A8E00120978120D322005131211B31205C77D0B
:100A9E00007F031210767F031211512290004D1227
:100AAE0005A31205C77F03121151900051E475F092
:100ABE000112057F900051E0FEA3E0FFD3EF949664
:100ACE00EE9400400A900051E4F0A3E4F0C2052237
:100D7100D205900051E4F0A3E4F07F007E007D5C99
:100D81007C4290004D1205AF1202FC501790004DAD
:100D91001205A37B007A007980783F1200659000EC
:0E0DA1004D1205BB90004D1205A31209E02271
:10000E00D205900051E4F0A3E4F07F007E007D2045
:10001E007C4190004D1205AF1202FC601940179002
:10002E00004D1205A37B007A00798078BF1200651F
:10003E0090004D1205BB90004D1205A31209E0224F
:10112C00538E7F758900758AE6758CBED28CD2A9D8
:03113C00D2AF220D
:03000B000210D20E
:1010D200C0E0C0F0C083C082C0D075D008120A8EB2
:0B10E200D0D0D082D083D0F0D0E0321C
:10005E0002041FE86480F8E933E83360110460F0AD
:10006E00ED33EC337009E8FCE9FDEAFEEBFF220408
:10007E0060DED3EB9FEA9EE99DE8C2E78CF0C2F703
:10008E0095F0400CE8CCF8E9CDF9EACEFAEBCFFBCF
:10009E001203EA85D0F05804700320D5B3E804703B
:1000AE00075002B2D502042992D5EC0460F7E4CCD5
:1000BE00C0E0C398F8603B94186008400DD0E0FB98
:1000CE00020401E4FBFAC9FC8028E830E406E4C926
:1000DE00FBE4CAFCE830E305E4C9CACBFCE85407EC
:1000EE006010F8C3E913F9EA13FAEB13FBEC13FCF7
:1000FE00D8F130F52FC3E49CFCEF9BFFEE9AFEED9A
:10010E0099FDD0E0FBEF4E4D4C701222DB03020442
:10011E0026EC2CFCEF33FFEE33FEED33FDED30E736
:10012E00EB020401EF2BFFEE3AFEED39FDD0E0FBC2
:10013E0050130BBB0003020429ED13FDEE13FEEF6B
:08014E0013FFEC13FC02040195
:10015600EC4D6011E8497017ED33EC3304600DE4A3
:10016600FCFFFEFD22E933E8330470F802041F1297
:1001760003EA58046009E4CC248150062850090299
:100186000429284003020426C0E0EB4A7044B980E3
:1001960006D0E0FB020415EF4E701CBD8008EBFF95
:1001A600EAFEE9FD80EBE98DF0A4FEE5F002023FF0
:1001B600E9CDF9EAFEEBFFEF89F0A4FCE5F0CE8984
:1001C600F0A42EFFE435F0CD89F0A42DFEE435F041
:1001D6008067EF4E7005BD80D780C3EF8BF0A4AC6F
:1001E600F0EE8BF0A42CFCE435F0F8EF8AF0A42CAA
:1001F600E5F038FCE433CB8DF0A42CFCE5F03BF8BD
:10020600EE8AF0A42CFCE5F038F8E433CF89F0A4AC
:100216002CFCE5F038CF3400CE89F0A42FFFE5F0B2
:100226003EFEE433C98DF0A42EFEE5F039CD8AF00A
:10023600A42FFFE5F03EFEE43DFD33D0E0FB500782
:100246000BBB000F020429EC2CFCEF33FFEE33FE50
:06025600ED33FD0204017E
:10025C00020429EC5D046005E85904700302041FD4
:10026C001203EA580460F6EC4860F2EC7004FDFEF0
:10027C00FF22C860DB2481C85009C3986002500675
:10028C000204269850CAF582E9294B4A7005AB82C4
:10029C0002041575F0007C1A7880C3EF9BEE9AED82
:1002AC0099400DC3EF9BFFEE9AFEED99FDE842F0ED
:1002BC00DC23ACF0D0E0FFD0E0FED0E0FDAB822040
:1002CC00E7101BEB60BAEC2CFCEF33FFEE33FEEDCA
:1002DC0033FD020401E803F830E705C0F075F000C7
:1002EC00EF2FFFEE33FEED33FD40B830E7C280AAAE
:1002FC0074F8CC6480CCC86480C8F58204604FC3A9
:10030C00EB9FF5F0EA9E42F0E99D42F0E89C45F047
:10031C00603C501DE5825FFFE582D313CB5BCBF4D1
:10032C002B5582FB50280ABA002409B900200880FA
:10033C001DE5825BFBE582D313CF5FCFF4C3132F94
:10034C005582FF50090EBE00050DBD00010CC3EB1C
:10035C009FF5F0EA9E42F0E99D42F0E89C45F06082
:09036C0007CC4820E701B3EC22A4
:1003750075F020800E75F010800575F0087D007E03
:10038500007F003392D530D503120595EC3340102C
:10039500EF33FFEE33FEED33FDEC33FCD5F0ED220C
:0E03A500E5F0247EA2D513CC92E7CDCEFF2248
:1003B300EDD2E7CD33EC3392D524814006E4FFFE42
:1003C300FDFC22FCE4CFCECDCC24E0501174FF80A1
:1003D300EDC3CC13CCCD13CDCE13CECF13CF04703E
:0703E300F030D5DE020595A4
:0D118D00ED33EC3360065004EC6480FC226E
:1003EA00E9D2E7C933E833F892D5EDD2E7CD33EC59
:0703FA0033FC5002B2D522D2
:10040100EC30E7100FBF000C0EBE00080DBD00045C
:100411000BEB6014A2D5EB13FCED92E7FD2274FF08
:10042100FCFDFEFF22E480F8A2D574FF13FC7D8061
:03043100E480EF75
:1008F800021096E493A3F8E493A34003F68001F270
:1009080008DFF48029E493A3F85407240CC8C33300
:10091800C4540F4420C8834004F456800146F6DFCF
:10092800E4800B0102040810204080900CA3E47EB0
:10093800019360BCA3FF543F30E509541FFEE493C4
:10094800A360010ECF54C025E060A840B8E493A38B
:10095800FAE493A3F8E493A3C8C582C8CAC583CAB6
:10096800F0A3C8C582C8CAC583CADFE9DEE780BE6E
:010CEA000009
:10043400E709F608DFFA8046E709F208DFFA803EAA
:1004440088828C83E709F0A3DFFA8032E309F60897
:10045400DFFA8078E309F208DFFA807088828C83FF
:10046400E309F0A3DFFA806489828A83E0A3F608B3
:10047400DFFA805889828A83E0A3F208DFFA804C8D
:1004840080D280FA80C680D4806980F28033801064
:1004940080A680EA809A80A880DA80E280CA8033CD
:1004A40089828A83ECFAE493A3C8C582C8CCC58345
:1004B400CCF0A3C8C582C8CCC583CCDFE9DEE78015
:1004C4000D89828A83E493A3F608DFF9ECFAA9F094
:1004D400EDFB2289828A83ECFAE0A3C8C582C8CCEA
:1004E400C583CCF0A3C8C582C8CCC583CCDFEADE03
:1004F400E880DB89828A83E493A3F208DFF980CC65
:1005040088F0EF60010E4E60C388F0ED2402B4045D
:100514000050B9F582EB2402B4040050AF23234504
:06052400822390048473A1
:10052A00BC000BBE0029EF8DF084FFADF022E4CCB5
:10053A00F875F008EF2FFFEE33FEEC33FCEE9DEC7E
:10054A00984005FCEE9DFE0FD5F0E9E4CEFD22EDC4
:10055A00F8F5F0EE8420D21CFEADF075F008EF2F0E
:10056A00FFED33FD4007985006D5F0F222C398FDFF
:05057A000FD5F0EA229C
:10057F00C5F0F8A3E028F0C5F0F8E5821582700207
:06058F001583E038F022A4
:0E059500C3E49FFFE49EFEE49DFDE49CFC2277
:0C05A300E0FCA3E0FDA3E0FEA3E0FF22CB
:0C05AF00E0F8A3E0F9A3E0FAA3E0FB22CF
:0C05BB00ECF0A3EDF0A3EEF0A3EFF022B3
:00000001FF
